:020000040800F2
:10000000103A0120D9020008B5490008C548000887
:10001000B14900082905000839620008EB02000810
:10002000000000000000000000000000314C00084B
:100030002D05000800000000D1490008554C0008BB
:10004000F5020008F5020008F5020008F5020008B4
:10005000F5020008F5020008F5020008F5020008A4
:10006000F5020008F5020008F5020008F502000894
:10007000F5020008F5020008F5020008F502000884
:10008000F5020008F5020008F5020008F502000874
:10009000F5020008F5020008F5020008F502000864
:1000A000F5020008F5020008F5020008F502000854
:1000B00000000000F5020008F5020008F502000843
:1000C000F5020008F5020008F5020008F502000834
:1000D000F5020008F5020008F5020008F502000824
:1000E000F5020008F5020008F5020008F502000814
:1000F000F5020008F5020008F5020008F502000804
:10010000F5020008714D0008F5020008F50200082C
:10011000F5020008F5020008F5020008F5020008E3
:10012000F5020008F5020008F5020008F5020008D3
:10013000F5020008F5020008F5020008F5020008C3
:10014000F5020008F5020008F5020008F5020008B3
:10015000F5020008F5020008F5020008F5020008A3
:10016000F5020008B9490008F5020008F502000888
:10017000F5020008F5020008F5020008F502000883
:10018000F5020008F5020008F5020008F502000873
:10019000F5020008F5020008F5020008F502000863
:1001A000F5020008F5020008F5020008F502000853
:1001B000F502000800000000F5020008F502000842
:1001C000F502000800000000F5020008F502000832
:1001D000F5020008F5020008F5020008F502000823
:1001E000F5020008F5020008F5020008F502000813
:1001F0000000000000000000F5020008F502000801
:10020000F5020008F5020008F5020008F5020008F2
:10021000F5020008F5020008F5020008F5020008E2
:10022000F5020008F5020008F5020008F5020008D2
:10023000F5020008F502000800F002F800F03CF8B2
:100240000AA090E8000C82448344AAF10107DA4531
:1002500001D100F031F8AFF2090EBAE80F0013F047
:10026000010F18BFFB1A43F0010318470C6F000081
:100270002C6F0000103A24BF78C878C1FAD8520712
:1002800024BF30C830C144BF04680C607047000010
:100290000023002400250026103A28BF78C1FBD88F
:1002A000520728BF30C148BF0B6070471FB506F02A
:1002B000D3FE1FBD10B510BD00F0FCF81146FFF7CE
:1002C000F5FF05F0BBFF00F01AF903B4FFF7F2FFEA
:1002D00003BC00F021F900000A4880470A480047A3
:1002E000FEE7FEE7FEE7FEE7FEE7FEE7FEE7FEE7E6
:1002F000FEE7FEE7FEE7000004480549054A064B15
:1003000070470000254D0008390200081034012014
:10031000103A0120103601201036012053EA020C59
:1003200000F069802DE9F04B4FF00006002B1FBF55
:10033000B3FA83F503FA05F424FA05F65E4012BF1A
:100340001643B2FA82F502FA05F4C5F120051EBF84
:1003500022FA05FC44EA0C04203556EA044C4FEA24
:10036000144418BF641C4FF000084FF0000990427D
:1003700071EB030C39D3002919BFB1FA81F701FAE7
:1003800007F6B0FA80F700FA07F6C7F120071EBF9C
:1003900020FA07FC46EA0C062037B6FBF4FCA7EB74
:1003A0000507103F07F01F0BCBF120062CFA06F6CD
:1003B0000CFA0BFB44BFB3460026202FA4BF5E46B9
:1003C0004FF0000B5BEA060C08BF4FF0010B19EB76
:1003D0000B0948EB0608ABFB027C06FB02CC0BFBCF
:1003E00003CCC01B71EB0C01C1E70B460246414632
:1003F0004846BDE8F08B13B5084318BF4FF0FF30F7
:100400000146AFF30080BDE81C40704702F0FF03D7
:1004100043EA032242EA024200F024B84FF000020D
:100420000429C0F0128010F0030C00F01B80CCF106
:10043000040CBCF1020F18BF00F8012BA8BF20F874
:10044000022BA1EB0C0100F00DB85FEAC17C24BFC8
:1004500000F8012B00F8012B48BF00F8012B704772
:100460004FF0000200B5134694469646203922BF4D
:10047000A0E80C50A0E80C50B1F12001BFF4F7AF98
:10048000090728BFA0E80C5048BF0CC05DF804EB7A
:10049000890028BF40F8042B08BF704748BF20F8E8
:1004A000022B11F0804F18BF00F8012B70477047E6
:1004B00070477047754600F02BF8AE460500694658
:1004C000534620F00700854618B020B5FFF714FF0B
:1004D000BDE820404FF000064FF000074FF0000845
:1004E0004FF0000BAC46ACE8C009ACE8C009ACE882
:1004F000C009ACE8C00921F007018D46704710B56E
:100500000446AFF300802046BDE81040FFF7DDBE93
:10051000004870471000002001491820ABBEFEE7DC
:100520002600020070470000FEE700007047000050
:10053000EFF3108072B600BFFEE700002DE9F04136
:1005400082B0002800F099800446806F40B1216895
:10055000886880000FD48868C00016D549E000BFC5
:10056000204600F0E1F90020E06784F8740021687B
:1005700088688000EFD588684FF6C072C5F6FF72B4
:10058000104088608868C00033D44FF6C072886815
:10059000C5F6FF7202F18052104000F18050886071
:1005A00040F20800C2F20000006842F6635280097F
:1005B000C0F23E52A0FB02029009022202EB400070
:1005C00001900198A8B100BF0198013801900198ED
:1005D00078B1019801380190019850B10198013823
:1005E0000190019828B101980138019001980028E4
:1005F000EAD18868C00009D4A06F40F01000A0675D
:10060000E06F40F00100E067012000E000208A6810
:10061000A36F02F0040203F01003D218A26F29D1D5
:1006200022F481720232A2678A6841F20C0ED2076C
:10063000C4F2026E3FD148F2000CC4F2022C6145B4
:1006400020D041F20003C4F20263994220D1D4E9E0
:1006500001C2DEF80030013A920862F38303CEF85B
:100660000030DEF8FC224FEA9C4363F39542CEF85B
:10067000FC2220E042F01000A067012002B0BDE89B
:10068000F08100BF0CF108031B68DB0705D012E006
:10069000AEF104031B68DB070DD10EF53F73614516
:1006A00008BF0CF54273D4F804C01A6822F4701223
:1006B00042EA0C021A60AEF10C02914266D094F844
:1006C0002420636C94F82C7043EA4232A368012F13
:1006D00042EA030242EA074206D1236B0027CFF623
:1006E000FE7707EB43431A43636B23B1A76B03F415
:1006F00078733B431A43CB684CF21307CFF6F0777D
:100700003B401A43CA608A688B6802F0040203F017
:100710000803D21840F0C38048F20003C4F2022359
:10072000CB1AE76B227F18BF012307FA03F343EAD2
:100730008232CB6844F20307BB431A43CA60E268C3
:100740004AB10B6F43F6FF77BB431A430A670A6F40
:1007500042F000420A6794F854300A69012B40F0D5
:1007600095804FF61E03CFF600431A40D4E91637A2
:10077000D4E918653A4342EA0342A36E32432A435E
:1007800042EA930242F0010282E000BF94F8241092
:10079000227FD4E904854B0343EA8232636C28F05C
:1007A0000046B8F1FF3FC8BF4FF400162A4394F843
:1007B0004070002B18BF42F48052324394F82C3022
:1007C00042EA470C012B0AD1002900F0A580A16F55
:1007D00041F02001A167E16F41F00101E167616B28
:1007E00029B1A26B01F4E07111434CEA010CDEF86F
:1007F000001048F20D02CFF6DE72114041EA0C0102
:10080000CEF80010216A21B1DEF838201143CEF86D
:100810003810E16E21B1DEF838201143CEF83810DF
:1008200094F85410012909D104F158030ECBA56E98
:1008300011431943294341F0010100E00021DEF892
:1008400004204FF60243CFF2FF731A401143CEF853
:100850000410DEF80810D4E9122321F00701114337
:10086000CEF80810DEF80810B8F5001F21F070016E
:1008700041EA0311CEF808101CD0B8F1000F2AD1BC
:10088000DEF81C1061F00F0123E000BF22F001022E
:100890000A610A69236D22F070421A430A612269D3
:1008A0000B6B012A23F00F0202BFA36A013B1A431C
:1008B0000A631BE0DEF81C10A16A1C2202EB810116
:1008C000D4F8882001F01C016FF00F0303FA01F146
:1008D0001143CEF81C10DEF800104FF6F372C8F288
:1008E0003F321140614509D10021E167A16F01222A
:1008F00062F30101A16702B0BDE8F081A06F40F092
:10090000100020F00200A067E06F40F00100E067F7
:10091000012002B0BDE8F0814CF4803C616B0029FD
:100920007FF45FAF63E7000070B5BAB0054602A878
:10093000002640F600040830C021CDE93866C4F234
:100940000224FFF78DFD286804F5F041884201D0AC
:100950003AB070BD4FF4004002904FF480402C90AC
:1009600002A8039602F0FEF8002818BFFFF7E0FD8A
:1009700040F68C40C4F20260016841F4806101607D
:10098000016801F4806101910199016841F004015D
:100990000160006835A900F004000190019804206E
:1009A00035900320369000203790204600F016F84E
:1009B0003AB070BDB0B5044600F040F9054640F2CB
:1009C0000000C2F200000078611C18BF044400BFA0
:1009D00000F034F9401BA042FAD3B0BD2DE9F04F2E
:1009E00082B00F68002F00F01F81804647F67F70AD
:1009F000C0F22F0000EA9820002200234FF00109E6
:100A000000260025C4F20262C4464FF0000A00909E
:100A100013E000BFC8464FF001090022C4F2026291
:100A20000F680AF1010A37FA0AF005F1020506F12A
:100A3000080603F1040300F0F78009FA0AF417EA44
:100A40000400EDD09045019026D0D1F804E04EF09E
:100A50001002122A5CD16FF0030000EA5A0203F080
:100A60001C0442440F20D2F820E000FA04F7086981
:100A70002EEA070700F00F00A04038431062DCF8B0
:100A800000000322D1F804E0AA4090430EF00302D4
:100A9000AA40104345E000BF10684F68A04307F02C
:100AA000010747F28C0407FA0AF7C0F6000407436F
:100AB000A019D0F804B06FF0030054F83AC000EA6F
:100AC0005B041C2017600CEB040700EA8B04D7F8CA
:100AD00020E00F2000FA04F20B202EEA020200FAB6
:100AE00004F422433A62DCF800204FEA4B0703206B
:100AF00000FA07F40220A24300FA07F73A43CCF8C1
:100B00000020D1F804E0BEF1120F10D93EE000BF82
:100B1000DCF800000322AA4090430EF00302AA4032
:100B20001043D346CCF80000BEF1120F2ED809FABC
:100B30000EF010F0061F25D04FEA4B070322C146E6
:100B4000DCF8080002FA07F8CA6820EA0800BA4090
:100B50001043CCF808000124DCF8040004FA0BF27E
:100B600090434FEA1E1202FA0BF21043BEF1030F3C
:100B7000CCF804003FF44EAF6FEA0804C8464FF0CB
:100B8000010908E0BEF1030F3FF447AF4FEA4B07FE
:100B90000320B840C443DCF80C008A682040BA4007
:100BA00010435FEACE02CCF80C007FF536AF42F27C
:100BB000000E2AF00300C4F2026E7044026E06F0CA
:100BC00018070F24BC40A243009C04FA07F73A43DD
:100BD0000266DEF800B001984A684BEA0007D402CA
:100BE00058BF2BEA0007CEF80070DEF804B094027C
:100BF0004BEA000758BF2BEA0007CEF80470DEF876
:100C000084B094034BEA000758BF2BEA0007CEF8E4
:100C10008470DEF88040D20344EA000758BF24EA1B
:100C20000007CEF88070F8E602B0BDE8F08F000053
:100C30001823002A08BF2823C150704743F20840F8
:100C4000C2F201000068704740F2000043F2084120
:100C5000C2F20000C2F2010100780A681044086084
:100C60007047000080B542F20000C4F20200016843
:100C700041F480710160032000F0C2F802F0BAFC78
:100C800040F62041C4F20261096847F2720201F0A5
:100C90000F01C0F60002515CC84040F20801C2F2E8
:100CA00000010860072000F009F800281CBF01209F
:100CB00080BD00F055F8002080BD0000B0B588B0C0
:100CC00040F69C41C4F202610A68044642F01002F8
:100CD0000A60096802A801F010010291029901A9B5
:100CE00002F0ECFB02F026FC4DF68361C4F21B31EE
:100CF000A0FB01014FF0FF3000EB914140F2C060DA
:100D000041F20003C2F2000040F2E732C4F20003F5
:100D10000025C0E90031C0E90252056103F0DCFAA8
:100D20000546B0B940F2C060C2F2000003F008FB13
:100D3000054670B90F2C0BD8312021460022002522
:100D400000F032F840F20400C2F20000046000E05B
:100D50000125312000F014F8284608B0B0BD00008D
:100D600081B040F69440C4F20260016841F0040191
:100D70000160006800F004000090009801B0704726
:100D8000002848BF70474EF20012C1B2CEF20002F6
:100D900042EAD10100F01F00012202FA00F021F026
:100DA000030108607047000010B54EF60C5CCEF2EF
:100DB000000CDCF80030C3F3022E8EF00704042C84
:100DC00028BF0424BEF103034FF0FF3E38BF0023C9
:100DD0000EFA04F4A14399400EFA03F39A43114327
:100DE00000F00F0200F160430901043A03F5644387
:100DF0006244002848BF02F10C03197010BD0000C6
:100E00004EF60C51CEF200010A684FF6FF031A406D
:100E100060F30A2242F0806040F0FD700860704785
:100E200001220168C0F80025002280F8F4248869B6
:100E300040F000608861486D40F0805040F003024F
:100E400000204A65704700007047000070470000AE
:100E50007047000070470000704700002DE9F04F18
:100E600089B005680646284605F064F810B109B057
:100E7000BDE8F08F306805F08BF80028F7D0D5F882
:100E80000808C0F30D213068C6F8FC1405F080F89E
:100E900001463068890703D5416901F002014161CB
:100EA00005F5006705F074F801463068C906089634
:100EB00004953CD5816921F0100181612C6AC4F34D
:100EC000434004F00F0506281AD0022829D147F61E
:100ED000F07014EA000824D005EBC5004FEA18149E
:100EE00006EB80090498D9F88812224605F054F8D8
:100EF000D9F8880200EB1810C9F8880208E000BF92
:100F0000049806F2C441082205F046F8C4F30A1416
:100F100005EBC50006EB8000D0F890122144C0F824
:100F200090123068816941F010018161049D03973E
:100F300005F02EF8000340F1F1800898006805F0F4
:100F400005F8002800F0EA80064608984FF430685B
:100F500000F2C44100F527744FF0000B07911BE02D
:100F600005EB0800022181605FEA8A6042BF05EB61
:100F70000800202181605FEA8A4042BF05EB08003B
:100F80004FF4005181600BF1010B760808F1200845
:100F900004F1240400F0C280F007F4D008985FFA4E
:100FA0008BF90068494604F0EBFF8246C00763D026
:100FB00005EB080001218160089F386808EB0001FB
:100FC000036C8A68FF68012F28D1170734D497066D
:100FD00000F19C8012F0280F4ED143F20B07C4F6AB
:100FE0005477BB4202D312F400422ED12268096921
:100FF000BBF1000F6FF3DF41A2EB010144F80C1CC1
:1010000035D1089BD3F88C22002A00F08580D3F8D4
:1010100088020844C3F8880229E000BF43F20B07A6
:10102000C4F65477FF37BB4216D110040DD4900696
:1010300044BF202088601AE043F20B00C4F65470CD
:10104000834219D312F4004016D04FF40040886058
:101050005FEA0A7013D439E0BBF1000F07D1089999
:10106000D1F88C1219B90021079A04F043FE0898B0
:101070004946FFF7EFFE00BF5FEA0A7026D505EB91
:10108000080008218160089843F20B020068C4F64A
:101090005472056C40448168571EBD4205D911F455
:1010A00000411CBF4FF400418160089800F0B2FC81
:1010B000BD42049D0AD90898C068012806D1089845
:1010C000079A0068012104F015FE00BF5FEACA60BC
:1010D00042BF05EB0800102181605FEA8A707FF54E
:1010E00043AF6869000604D50399486840F48060FE
:1010F000486014F81D0C01287FF432AF002004F87A
:101100001D0C0898494600F079FB29E720208860EB
:101110005FEA0A70B3D4D9E70121A5E7DDF820B072
:10112000DBF8000004F034FF400340F1E380DBF81B
:10113000000004F003FF002800F0DC80824605F583
:10114000106002900BF2C4400027019006E000BF3F
:101150005FEA5A0A07F1010700F0CC805FEACA7023
:10116000F6D0DBF80000F9B2079104F0F7FE029E1A
:101170000446C0070AD1200732D4E00636D4600600
:101180003AD4A0073ED42006E2D554E0039A07F0F3
:101190000F00516B012303FA00F021EA000006EB77
:1011A000471150638B60DBF80C00012812D107EB6C
:1011B000C7000BEB8000D0E91112114481644FB9D4
:1011C000DBF84C0030B9DBF80000019A012104F093
:1011D00091FD00BF07995846FFF73AFE2007CCD58E
:1011E00006EB471008218160E006C8D506EB4710E2
:1011F000102181606006C4D506EB47104021816054
:10120000A007C0D52846394604F02AFE07EBC700E0
:101210000BEB800010F83F1F012905D10021017060
:101220000799584600F0E8FA06EB47100221816062
:1012300020067FF58DAF07EBC7000BEB80029146D0
:1012400059F84C1FC84658F8040F8142FFF480AF8C
:10125000DBF80060934606EB471C06965BF8443FBC
:10126000DCF818E90D1A9D4238BF2B461FFA8EF59F
:101270000333B5EB930F29D30CF5106102F1480548
:10128000059100BFD9F8001081421FD9DBF800405A
:10129000089A081AA0422968167B38BF0446DDE97F
:1012A0000602A3B2009604F08FFF2868D8F8001059
:1012B0002044286008190599C8F800008969E21CD3
:1012C00089B2B1EB920FDDD2D9F80010DDF820B071
:1012D000049D81423FF63CAF069B07F00F00D3F818
:1012E0003418012202FA00F021EA0000C3F83408A1
:1012F0002EE700BFDBF8000004F04AFE00280FD400
:10130000DBF80000DDF80C8004F042FE000528D474
:10131000DBF8000004F03CFE000133D43EE000BFE7
:10132000DDF80C80D8F8040020F00100C8F80400B3
:101330009BF8F404012807D100208BF8F4045846E8
:101340000021FFF781FD02E0584600F05FFBDBF86B
:101350000000416901F00041416104F019FE0005FF
:10136000D6D5D8F80800C0071CBF584600F054FB7B
:10137000DBF80000416901F40061416104F008FEFE
:1013800000010BD5DBF80000416901F0006141610B
:101390009BF8F41461B1584600F03EFBDBF8000006
:1013A00004F0F6FDC00415D4DBF8000017E100BF1F
:1013B00001218BF8F414406D0121C0F38300CBF8B8
:1013C000F8045846FFF740FDDBF8000004F0E0FDAC
:1013D000C004E9D5D8F80400102120F00100C8F8B5
:1013E0000400DBF8000004F03BFDDBF804000028FB
:1013F00000F0C180411E032900F0030C02D200213D
:101400006CE000BF20F0030E05F536634FF6A056E2
:101410004FF6C0554FF6E0544FF6006000214FF6EE
:101420007F37CFF6FF76CFF6FF75CFF6FF74CFF696
:10143000FF7000BFA3F5187297609A59043122F427
:1014400000129A5143F8587C53F8602C8E4522F4D0
:10145000001243F8602C53F8602C42F0006243F80D
:10146000602CA3F5107297605A5922F400125A5159
:1014700043F8387C53F8402C22F4001243F8402CF7
:1014800053F8402C42F0006243F8402CA3F5087258
:1014900097601A5922F400121A5143F8187C53F835
:1014A000202C22F4001243F8202C53F8202C42F078
:1014B000006243F8202CA3F5007297601A5822F4BA
:1014C00000121A509F601A6822F400121A601A68FB
:1014D00042F000621A6003F18003ABD1049DBCF1BD
:1014E000000F48D005F5106000EB41124FF67F3336
:1014F0004F019360C65905F5306202EB411526F4A1
:101500000016C651AB60D659BCF1010F26F4001687
:10151000D651D65946F00066D6512CD04F1C00EB60
:1015200047167D01B360465902EB471726F40016B3
:101530004651BB605359BCF1020F23F400135351C1
:10154000535943F00063535115D0023100EB41175A
:101550004FF67F364B01BE60C75802EB411127F4AE
:101560000017C7508E60D05820F40010D050D058CB
:1015700040F00060D050D8F81C0040F00110C8F8CE
:101580001C00DBF8300048B1D8F8840040F00B00B4
:10159000C8F8840008F1440009E000BFD8F814003E
:1015A00042F22B010843C8F8140008F1100001684A
:1015B0000BF2C44241F00B010160D8F8000020F4A6
:1015C000FE60C8F80000DBF800009BF80C1004F087
:1015D00091FBDBF80000416901F48051416104F0A6
:1015E000D7FC0146DBF8000089041AD504F0A6F800
:1015F000DBF8000004F090FCDBF80040CBF81000B2
:1016000001F082FF9BF810200146204604F04CFDBB
:10161000584600F0F9F9DBF80000416901F4005187
:10162000416104F0B5FC000706D4DBF8000004F0CB
:10163000AFFC00060DD435E0584600F0E9F9DBF8C0
:101640000000416901F00801416104F0A1FC0006BD
:1016500028D50499886920F080008861DBF80400AF
:1016600002281FD3012440F2A32504E00134844260
:1016700005F1240516D21BF805100129F6D104F056
:101680000F0000EBC0000BEB80022006DBF800002F
:1016900002F13C0158BF02F51F7104F059FBDBF861
:1016A0000400E3E7DBF8000004F072FCC0024FD452
:1016B000DBF8000004F06CFC049D800240F17E80A9
:1016C000DBF8041002292AD305F5326001390BF545
:1016D0002972012305E000BF2030013902F1240204
:1016E0001DD007681678012EF6D1B7F1FF3FF3DC65
:1016F000DBF8FC6407F4803706F00106B742EBD153
:1017000002F8013CAF6947F08007AF616F693F069F
:10171000E2D4D8F8040040F40070C8F80400DBF804
:101720000000416901F40011416104F031FC400006
:101730004AD55846FFF78AFBDBF80000416901F003
:101740008041416104F024FC40077FF590AB42E00A
:10175000DBF80400022825D304990BF1640501F598
:1017600012640126012705E001372034874205F184
:10177000240517D221682A78012AF5D1B1F1FF3F5B
:10178000F2DC07F00F0000EBC00005F8016C0BEB7A
:101790008001DBF800003C3104F0DAFADBF80400E9
:1017A000E2E700BFDBF80000416901F4801141610C
:1017B00004F0EEFB049D80023FF582AFDBF80000F1
:1017C00004F0E6FB4000B4D4DBF8000004F0E0FBDA
:1017D00040077FF54CABDBF800004468610704D597
:1017E0005846FFF739FBDBF80000416821434160B0
:1017F00009B0BDE8F08F000070470000704700009E
:101800002DE9F04F8BB0002800F084800446056875
:1018100090F8BD0428B9002084F8BC04204600F0EC
:1018200091F8032084F8BD04E86B40045CBF0020FD
:10183000E060206804F056FA206804F11C0A0A905F
:10184000D4E90C5004F1040E9AE8C0079EE80E5843
:10185000CDE9085003A880E8C0030A988DE8005835
:10186000CDF81CA003F07AFF002850D12068002199
:10187000002504F0E7FB616851B304F15600012232
:10188000002300BF00F81A3CDFB201330780DFB24B
:1018900000F8192C00F8165C40F8125C40F80E5C59
:1018A00040F80A5CB94200F12400EBD804F523703B
:1018B0000022002300F8103C013300F80F2C00F840
:1018C0000C2C40E9022240F8242BDFB2B942F1D8B7
:1018D000A06822680A90D4E90C50D4E9033704F1D7
:1018E000140E04F1240A9EE840589AE80007CDE956
:1018F000085002A880E8005810460A9ACDE9007600
:10190000CDE90589CDF81CA003F0B6FF30B1022067
:1019100084F8BD0401200BB0BDE8F08F002084F8EE
:101920003800012084F8BD04606A012804BF204605
:10193000FFF776FA206803F08FFF00200BB0BDE8B8
:10194000F08F000070B5BAB0054602A80024083038
:10195000C021C4F20224FEF783FD286804F500319B
:10196000884201D03AB070BD4FF48010002602903A
:1019700002A8039601F0F6F8002818BFFEF7D8FD7C
:1019800040F68C45C4F20265286835A940F0010094
:101990002860286800F00100359035984FF4C05059
:1019A00035900220CDE93606032038900A20399080
:1019B0002046FFF713F8286840F480402860286824
:1019C00000F4804001900198A868400710D4A868EE
:1019D00040F00400A860A86800F00400019001989D
:1019E00000F004F9A86820F00400A86002E000BF3D
:1019F00000F0FCF8492000210022FFF7D5F949202A
:101A0000FFF7BEF93AB070BD7047000070470000A4
:101A100070470000704700007047000040F2080166
:101A2000C2F200010A6841F25973CDF2B71340F6D1
:101A30003C01C4F20261A2FB032351F8342C0028BC
:101A40004FEA93301CD042F00202023041F8342CAD
:101A50000A68920732D4012830D00A6892072FD43E
:101A600002282DD00A6892072CD403282AD00A68AD
:101A70009207A0F104022CD404281046E8D128E0F3
:101A800022F00202023041F8342C00BF0A689207AB
:101A90001AD5012818D00A68920717D5022815D040
:101AA0000A68920714D5032812D00A689207A0F199
:101AB00004020ED504281046E8D10AE0421E08E0D0
:101AC000821E06E0C21E04E0421E02E0821E00E00A
:101AD000C21E0020002A08BF0320704740F60C0CED
:101AE000C4F2026CDCF8302002F4403282420BD1A6
:101AF000B0F1011F68D3DCF8000040F48020CCF87E
:101B000000000020704700BFDCF80020B0F5803FE7
:101B100022F4E02242EA000240F2080088BF42F4C8
:101B20008022CCF80020C2F20000006841F2597215
:101B3000CDF2B712A0FB0202900B0346DCF80010B6
:101B4000B3F1FF3218BF012209041ED4591C1CD066
:101B5000DCF80010002B1A4618BF0122090414D427
:101B60009BB1DCF800105A1E18BF012209040CD4E6
:101B7000012B0AD0DCF800109A1E18BF01220904BC
:101B800003D4022BA3F10403D8D112B3DCF8301034
:101B9000090417D4411C15D0DCF83010090412D404
:101BA00088B1DCF83010090410D401280ED0DCF81C
:101BB0003010021F090402D402281046E6D1901CFE
:101BC00010B906E0013020B100207047013800282C
:101BD000FAD103207047000040F61000C4F2026002
:101BE000016841F0005101607047000040F61000AC
:101BF000C4F20260016841F080510160704700004A
:101C000040F63C00C4F20260006800F440307047C7
:101C1000B0B540F6284EC4F2026EDEF80C50DEF885
:101C20000030DEF80010DEF80020DEF81040D206AA
:101C3000E40804EAE272C1F303216FF35F3200EEBD
:101C4000102A03F00303B8EE400A6FF35F25012B5F
:101C500001F1010C66D0032B18BF022B62D101EEFB
:101C600010CADEF80C10B8EE411A9FED4D2A6FF342
:101C70005F2182EE011A02EE101A9FED4A3AB8EE89
:101C8000422A20EE030A30EE020AB7EE002A30EEB6
:101C9000022ADEF8001021EE020AC90371D5DEF82F
:101CA0000C10B7EE002AC1F3462101EE101AB8EE6F
:101CB000411A31EE021A80EE011ABCEEC11A11EE81
:101CC000102A0260DEF80010890360D5DEF80C10DF
:101CD000B7EE002AC1F3064101EE101AB8EE411A20
:101CE00031EE021A80EE011ABCEEC11A11EE102A72
:101CF0004260DEF8001049034FD5DEF80C10B7EE55
:101D0000002AC1F3066101EE101AB8EE411A31EE55
:101D1000021A80EE010ABCEEC00A10EE101A8160B1
:101D2000B0BD00BF5EF8201C090203D4DEF8CC1061
:101D30000B0401E05EF8203C47F20C12190FC0F6CC
:101D4000000202EB810102EE10CA91ED001AB8EE1A
:101D5000422AB8EE411A9FED133A81EE022A01EEB3
:101D6000105A20EE030AB8EE411A30EE010AB7EE1F
:101D7000001A30EE011ADEF8001021EE020AC90343
:101D80008DD400220260DEF8001089039ED4002268
:101D90004260DEF800104903AFD400218160B0BD7D
:101DA0000024744B00000039B0B540F62C4EC4F24C
:101DB000026EDEF81050DEF80030DEF80010DEF8BB
:101DC0000020DEF81440D206E40804EAE272C1F30F
:101DD00003216FF35F3200EE102A03F00303B8EE25
:101DE000400A6FF35F25012B01F1010C66D0032B34
:101DF00018BF022B62D101EE10CADEF81010B8EE47
:101E0000411A9FED4D2A6FF35F2182EE011A02EE17
:101E1000101A9FED4A3AB8EE422A20EE030A30EE3D
:101E2000020AB7EE002A30EE022ADEF8001021EE98
:101E3000020AC90371D5DEF81010B7EE002AC1F30B
:101E4000462101EE101AB8EE411A31EE021A80EE68
:101E5000011ABCEEC11A11EE102A0260DEF8001061
:101E6000890360D5DEF81010B7EE002AC1F30641F1
:101E700001EE101AB8EE411A31EE021A80EE011A84
:101E8000BCEEC11A11EE102A4260DEF800104903C0
:101E90004FD5DEF81010B7EE002AC1F3066101EE4F
:101EA000101AB8EE411A31EE021A80EE010ABCEEA9
:101EB000C00A10EE101A8160B0BD00BF5EF8241C8D
:101EC000090203D4DEF8C8100B0401E05EF8243CDC
:101ED00047F20C12190FC0F6000202EB810102EE6C
:101EE00010CA91ED001AB8EE422AB8EE411A9FEDE1
:101EF000133A81EE022A01EE105A20EE030AB8EEE0
:101F0000411A30EE010AB7EE001A30EE011ADEF87F
:101F1000001021EE020AC9038DD400220260DEF80F
:101F2000001089039ED400224260DEF800104903AD
:101F3000AFD400218160B0BD0024744B0000003993
:101F4000B0B540F6304EC4F2026EDEF81450DEF842
:101F50000030DEF80010DEF80020DEF81840D2066F
:101F6000E40804EAE272C1F303216FF35F3200EE8A
:101F7000102A03F00303B8EE400A6FF35F25012B2C
:101F800001F1010C66D0032B18BF022B62D101EEC8
:101F900010CADEF81410B8EE411A9FED4D2A6FF307
:101FA0005F2182EE011A02EE101A9FED4A3AB8EE56
:101FB000422A20EE030A30EE020AB7EE002A30EE83
:101FC000022ADEF8001021EE020AC90371D5DEF8FC
:101FD0001410B7EE002AC1F3462101EE101AB8EE34
:101FE000411A31EE021A80EE011ABCEEC11A11EE4E
:101FF000102A0260DEF80010890360D5DEF81410A4
:10200000B7EE002AC1F3064101EE101AB8EE411AEC
:1020100031EE021A80EE011ABCEEC11A11EE102A3E
:102020004260DEF8001049034FD5DEF81410B7EE19
:10203000002AC1F3066101EE101AB8EE411A31EE22
:10204000021A80EE010ABCEEC00A10EE101A81607E
:10205000B0BD00BF5EF8281C090203D4DEF8C4102E
:102060000B0401E05EF8283C47F20C12190FC0F691
:10207000000202EB810102EE10CA91ED001AB8EEE7
:10208000422AB8EE411A9FED133A81EE022A01EE80
:10209000105A20EE030AB8EE411A30EE010AB7EEEC
:1020A000001A30EE011ADEF8001021EE020AC90310
:1020B0008DD400220260DEF8001089039ED4002235
:1020C0004260DEF800104903AFD400218160B0BD4A
:1020D0000024744B0000003980B584B0024643F6FA
:1020E000FF7300209B1A70EB01034DDA4FF6FF736C
:1020F000C0F21F039B1A70EB010380F2B5806FF0F2
:102100007E439B1A4FF0000C7CEB0103C0F222814E
:102110004FF6FF73C0F27F039B1A7CEB0103C0F202
:10212000A98182F400130B4300F0E88282F480025C
:10213000114340F0B58440F60041C4F20261D1F889
:10214000E00000F44042B2F5804F00F0B783002A6F
:1021500000F08A830868400503D5B2F5004F00F00F
:102160006384086880064FF0000040F19984B2F55E
:10217000404F40F095848868000200F1DD84D1F87A
:10218000F400000400F0E3BCD2F17F0370EB010324
:10219000C0F2B280013A61F10001D2F13F034FF089
:1021A000000373EB0101C0F07B84DFE812F0410013
:1021B000E701790401027904790479041B027904A6
:1021C000790479047904790479047904350279046D
:1021D0007904790479047904790479047904790417
:1021E000790479047904790479047904530279042F
:1021F00079047904790479047904790479047904F7
:1022000079047904790479047904790479047904E6
:1022100079047904790479047904790479047904D6
:102220007904790479047904790479047F0200BF80
:1022300040F60040C4F20260D0F8E01001F0030163
:10224000012900F03B83002900F032830268520527
:1022500002D5022900F0E883D0F8F000033910F02D
:10226000020000F039BC00BF4FF6FF73C0F201035B
:102270009B1A4FF0000C7CEB010380F299804FF623
:10228000FF73C0F207039B1A7CEB0103C0F21681B7
:1022900082F400330B4300F04D8282F4802211431C
:1022A00040F0FE8340F60040C4F20260D0F8F01027
:1022B000D0F8F02001F44071920703D5B1F5807F8A
:1022C00000F05881D0F8F020120103D5B1F5007F5D
:1022D00000F05D820068B1F5407F00F400324FF0FD
:1022E000000004BF4AF22010C0F20700002A08BF15
:1022F000104604B080BD00BF40F2FF339B1A4FF080
:10230000000C7CEB010380F2858040F6FF739B1A82
:102310007CEB0103C0F2F68082F480630B4300F093
:10232000238282F40062114340F0BA8340F60040F9
:10233000C4F20260D0F8E81011F4407100F0368366
:10234000D0F8F020120140F17681B1F5807F00F0E5
:102350001E8270E16FF078439B1A7CEB0103C0F2A0
:10236000EF8082F000730B4300F01C8282F08062E9
:10237000114340F0958340F60040C4F20260D0F86B
:10238000E410C1F30151DFE811F099020500E30206
:10239000EB0200BF0168890640F1A9838168090248
:1023A00000F1B483D0F8F400000400F0D0BB00BF0B
:1023B00082F480430B4300F00F8282F400430B430E
:1023C00000F02A8282F48032114340F0698340F6A3
:1023D0000041C4F20261D1F8E40000F00702042ACF
:1023E00000F285834BF68030DFE812F02A021002FB
:1023F000B8015A03060000BF0868800640F17783E1
:102400008868000200F19A83D1F8F400000400F01B
:102410009EBB00BF82F080030B4300F0178282F462
:1024200080730B4300F0268282F40072114340F067
:10243000378340F60040C4F20260D0F8E81011F48F
:10244000406100F0BF82D0F8F020120103D5B1F551
:10245000806F00F09C810268520503D5B1F5006FD2
:1024600000F0E282D0F8F000A1F5406110F0020027
:1024700032E300BF82F400030B4300F00D8282F0D0
:102480008072114340F00C8340F60040C4F20260B9
:10249000D0F8E010C1F30141DFE811F0E6011002CD
:1024A000600204000168890640F121838168090205
:1024B00000F12E83D0F8F400000448E382F40023F6
:1024C0000B4300F0018282F48012114340F0E88255
:1024D00040F60040C4F20260D0F8E010C1F3816120
:1024E000DFE811F020013E0236020400016889068F
:1024F00040F1FD82816809025ABFD0F8F40000045F
:10250000806824E382F480530B4300F0F18182F46D
:102510000052114340F0C48240F60041C4F202610F
:10252000D1F8E400C0F34212042A00F2E0824BF634
:102530008030DFE812F0350265016B01B50253020D
:1025400082F000630B4300F0EF8182F08052114370
:1025500040F0A68240F60041C4F20261D1F8E800E2
:10256000D1F8F020920700F4004240F1FF81002AE8
:1025700040F0FC814FF4004004B080BD40F60040C4
:10258000C4F20260D0F8E01001F00C01042900F060
:102590009581002900F068810268520502D508295A
:1025A00000F04282D0F8F0000C3910F0020093E203
:1025B00040F60040C4F20260D0F8E01001F03001B3
:1025C000102900F07B81002900F04E81026852053D
:1025D00002D5202900F02882D0F8F000303910F020
:1025E000020079E240F60040C4F20260D0F8E01048
:1025F00001F0C001402900F06181002900F0348120
:102600000268520502D5802900F00E82D0F8F00051
:10261000C03910F002005FE240F60040C4F20260F0
:10262000D0F8E01001F44071B1F5807F00F04681F0
:10263000002900F019810268520503D5B1F5007F29
:1026400000F0F281D0F8F000A1F5407110F0020026
:1026500042E200BF40F60041C4F20261D1F8E80056
:1026600000F00702012A00F02981002A00F00E8103
:102670000868400502D5022A00F0D681D1F8F000A2
:10268000800702D5032A3FF475AF086880064FF033
:10269000000040F10582042A40F0028288680002AE
:1026A00000F15482D1F8F400000450E240F60041F9
:1026B000C4F20261D1F8E00000F44062B2F5806F2C
:1026C00000F0FC80002A00F0CF800868400503D5A8
:1026D000B2F5006F00F0A881086880064FF0000096
:1026E00040F1DE81B2F5406F40F0DA818868000287
:1026F00000F12082D1F8F400000428E240F6004006
:10270000C4F20260D0F8E410490400F17F80D0F8F0
:10271000E010C1F38161DFE811F0050023011B0126
:10272000E70100BF006846F600418004C0F2DC21EA
:102730005AE100BF40F60041C4F20261D1F8E8005E
:10274000C0F30242042A00F2D2814BF68030DFE867
:1027500012F077005D000500A701B30101A8FFF7A3
:10276000EFFB029804B080BD40F60040C4F2026066
:10277000D0F8E01011F4402100F07680D0F8F0207D
:10278000120140F14B81B1F5802F40F04781D0F824
:10279000F000C0004FF0FA0058BF4FF4FA4004B008
:1027A00080BD00BF40F60040C4F20260D0F8E810DF
:1027B000C1F3C101DFE811F06A008200D200040019
:1027C0000168890640F193818168090200F1A281C4
:1027D000D0F8F4000004BAE140F60041C4F202610E
:1027E000D1F8E400C0F30222042A00F280814BF603
:1027F0008030DFE812F0D50005000B005501F30032
:1028000001A8FFF79DFB019804B080BD01A8FFF768
:10281000FFF9019804B080BD40F60041C4F20261A6
:10282000D1F8E800C0F30232052A00F22D81DFE87A
:1028300012F00700450025012B012B01390100BFD3
:1028400004B0BDE8804000F05FBE00BF40F600412C
:10285000C4F20261D1F8E00000F44052B2F5805FAA
:102860002CD0002A40F0C48004B0BDE8804000F0C5
:1028700061BE00BF40F60040C4F20260D0F8E8102C
:10288000C1F38111DFE801F0021A6AD604B0BDE895
:10289000804000F08FBE00BF40F60040C4F20260EE
:1028A000D0F8E010C1F30151DFE801F0020858CE82
:1028B00004B0BDE8804000F05DBE00BF04B0BDE8DC
:1028C000804000F097BE00BF40F60040C4F20260B6
:1028D000D0F8E410026801F44051920454D5002964
:1028E00052D146F60040C0F2DC2004B080BD00BFEB
:1028F00040F60041C4F20261D1F8E4000A6800F435
:102900000060520502D5002800F08E80096800287A
:102910001CBF41F20020C0F27A0001F4806100295E
:1029200008BF084604B080BD40F60040C4F2026013
:10293000D0F8E0100068800301F0407001D5002855
:1029400072D0B0F1007F2BD0B0F1807F40F0CF800B
:1029500001A8FFF75DF9029804B080BD00683EE071
:1029600001A8FFF721FA029804B080BDD1F8F00069
:1029700000014FF0000040F19380002A00F09080A9
:10298000D1F8F00005E700BF0268920466D5B1F502
:10299000805F63D143F20060C0F26E1004B080BD6E
:1029A00001A8FFF701FA019804B080BD016889060B
:1029B00040F19D808168090200F1A480D0F8F40004
:1029C0000004C4E00168890640F191808168090231
:1029D00000F19A80D0F8F4000004B8E0086842F2F0
:1029E00000414005C0F2F40101EAE07004B080BD8E
:1029F0000868400502D5B2F5005F15D0086880066A
:102A00004FF000004CD5B2F5405F49D18868000214
:102A100000F19680D1F8F400000498E002685205B5
:102A200054D5B1F5002F51D142F20040C0F2F4006C
:102A300004B080BD0168890659D5816809026BD44C
:102A4000D0F8F400000482E0016889064FD581685F
:102A5000090263D4D0F8F400000478E00068B1F50E
:102A6000005F00F480624FF0000004BF42F20040BB
:102A7000C0F2F400002A08BF104611E001A8FFF7D9
:102A800093F9039804B080BD0A68920300F4E04211
:102A900042F20040C0F2F4002CD5B2F5405F29D1DB
:102AA00004B080BD0868800621D5886800023FD444
:102AB000D1F8F40000044AE00868800617D5886859
:102AC00000023FD4D1F8F400000440E0D0F8F00058
:102AD000A1F5402110F00200B1FA81F14FEA511145
:102AE00018BFC80304B080BD0168890618D400204F
:102AF00004B080BD0968B2F5804F18BF002001F412
:102B000080610CE7806822E0806820E080681EE039
:102B100080681CE080681AE0806818E0806816E031
:102B20008168090210D4D0F8F40000040FE000BF5F
:102B300088680CE088680AE0886808E0886806E031
:102B4000886804E0886802E0806800E08868C0F374
:102B5000036047F20C11C0F6000151F8200004B0E8
:102B600080BD00002DE9F04F81B00446006840F6BA
:102B7000E04BC107C4F2026B20D1810728D4410782
:102B800030D4010738D4C10640D4810648D4410668
:102B900050D4010658D4C10560D4410268D48105DF
:102BA00070D4410579D4010500F1828040F62848AF
:102BB0008004C4F2026800F18A80B4E0DBF80010FF
:102BC000226D21F003011143CBF800108107D6D507
:102BD000DBF80010626D21F00C011143CBF80010FE
:102BE0004107CED5DBF80010A26D21F03001114372
:102BF000CBF800100107C6D5DBF80010E26D21F01C
:102C0000C0011143CBF80010C106BED5DBF800109F
:102C1000226E21F440711143CBF800108106B6D525
:102C2000DBF80810626E21F007011143CBF80810A1
:102C30004106AED5DBF80010A26E21F440611143CD
:102C4000CBF800100106A6D5DBF80010E26E21F4E7
:102C500040511143CBF80010C1059ED5DBF8081098
:102C6000226F21F0C0011143CBF80810410296D524
:102C7000DBF80010626F21F440411143CBF80010E3
:102C800081058ED5DBF80810A26F21F44061114355
:102C9000CBF8081041057FF586AFDBF80010E26F36
:102CA00021F440211143CBF8001001057FF57EAFE0
:102CB000DBF80810D4F8802021F440711143CBF8E0
:102CC000081040F628488004C4F202682BD5D4F8D6
:102CD00090004FEA701104290CD8DFE801F0030DD1
:102CE000171D1D0004F1080001F0A4FE0646D8B926
:102CF00008E000BF012617E004F12C0001F016FFE8
:102D0000064688B9D4F8900006E000BFD8F8001055
:102D100041F48031C8F80010DBF8041021F0E00124
:102D20000843CBF8040000266078400602D43746FA
:102D300038E000BFD4F894004FEA302004280BD8C4
:102D40003746DFE800F0030F1B14140004F10800FD
:102D500001F070FE0AE000BF01270125607800063F
:102D600024D449E004F12C0001F0E0FE07463D4682
:102D700077B16078000619D43EE000BFD8F80000B3
:102D8000374640F48030C8F80000002F3D46F0D1AF
:102D9000DBF80400D4F8941020F4E0600843002726
:102DA000CBF8040035466078000625D5D4F8A80095
:102DB0004FEA3030052807D802280BD03E468FB1A5
:102DC000A078C0071CD139E001270126A078C007F0
:102DD00016D133E004F1080001F02CFE0746002F65
:102DE0003E46EDD1DBF80800D4F8A81020F4E0400E
:102DF00008430027CBF808002E46A078C0071DD056
:102E0000D4F88800042800F2A981DFE810F00B0054
:102E10000500AB010B000B00D8F8000040F4803037
:102E2000C8F800003D4657B9DBF80400D4F8881014
:102E300020F0070008430027CBF804003546A078AF
:102E400080071FD5D4F88C004FEA3040042800F2E8
:102E50009381DFE810F00B00050095010B000B00DB
:102E6000D8F8000040F48030C8F80000B94657B9DF
:102E7000DBF80800D4F88C1020F4E0200843002789
:102E8000CBF80800A946A078400701D44D465DE084
:102E90005BF84C0C10F0040A0BD15BF84C0C40F0C2
:102EA00004004BF84C0C5BF84C0C00F00400009054
:102EB00000984FF60045CFF6FF7558F8050040F032
:102EC000010048F80500FDF7B9FE064658F8050070
:102ED000C00707D1FDF7B2FE801B0228F6D90327F1
:102EE00003252AE03D4647BBDBF8100010F4407094
:102EF00018D0D4F8C010884211D0DBF81000DBF8ED
:102F0000101020F4407041F48031CBF81010DBF841
:102F1000101021F48031CBF81010CBF81000C0074E
:102F200040F03881DBF81000D4F8C01020F4407075
:102F3000084300274D46CBF81000BAF1000F05D129
:102F40005BF84C0C20F004004BF84C0CA078C00649
:102F50001BD5D4F8A0004FEAB060032800F2E88047
:102F6000DFE800F00702EA0704F1080001F062FD63
:102F70000746394657B9DBF80000D4F8A01020F016
:102F8000406008430027CBF8000029462068020370
:102F900020D5D4F8982032B1B2F5005F18BFB2F551
:102FA000805F40F0D5803E4667B1C10415D48102F0
:102FB0001ED4010230D4C10139D4810142D4400170
:102FC0004BD471E0DBF80430002723F440531A435C
:102FD000CBF804200E46C104E9D5DBF80410D4F880
:102FE0009C2021F400611143CBF804108102E0D54C
:102FF000D4F8A410B1F5804F05D1D8F8002042F4E0
:103000008032C8F80020DBF8042022F4804211430B
:10301000CBF804100102CED5DBF80010D4F8B420B0
:1030200021F440111143CBF80010C101C5D5DBF8E4
:103030000010D4F8B82021F440311143CBF800102F
:103040008101BCD5DBF80810D4F8BC2021F01801B0
:103050001143CBF80810400126D5D4F8B000B0F5E4
:10306000401F0FD0B0F5001F05D1D8F8000040F484
:103070000030C8F800003D4667B1E078000717D47B
:103080003EE000BF04F1080001F0D4FC0746002F29
:103090003D46F2D1DBF80400D4F8B01020F4401023
:1030A00008430027CBF804003546E078000727D511
:1030B000D4F8840058B1B0F1007F11D0B0F1807F16
:1030C00030D1D8F8000040F40030C8F8000077B1E3
:1030D000E078C00618D4384601B0BDE8F08F00BFD4
:1030E00004F1080001F0A6FC0746002FF0D1DBF840
:1030F0000000D4F8841020F040700843CBF80000A2
:103100002F46E078C006E6D5DBF80800D4F8AC100E
:1031100020F400400843CBF80800384601B0BDE871
:10312000F08F00BF0127E078C006D4D5ECE700BFE0
:10313000012701212AE700BFD8F8000040F4003041
:10314000C8F80000002F39467FF420AF13E700BF16
:1031500001270126C1047FF52AAF3EE7012701259B
:103160006DE600BF04F12C0001F0E0FC0746002FE3
:103170003D467FF464AE57E601274FF0010982E631
:1031800004F12C0001F0D2FC0746002FB9467FF471
:103190007AAE6DE6FDF752FD06460327032500BF14
:1031A000DBF8100080073FF5BDAEFDF747FD801B43
:1031B00041F288318842F3D9BFE600002DE9F04F93
:1031C00081B0002800F01C8142F20008C4F202081D
:1031D0000446D8F800000D4600F00F0088420DD2DA
:1031E000D8F8000020F00F002843C8F80000D8F8F5
:1031F000000000F00F00A84240F00281206840F675
:103200002049C106C4F202690DD56169D9F80420CC
:1032100002F07002914206D9D9F8042022F070021F
:103220001143C9F8041001070FD52169D9F800200E
:10323000702303EA1212914207D9D9F8002022F430
:10324000E06242EA0111C9F8001041070DD5E168BA
:10325000D9F8002002F07002914206D9D9F8002076
:1032600022F070021143C9F8001081070DD5A16842
:10327000D9F8002002F00F02914206D9D9F80020B7
:1032800022F00F021143C9F80010C00774D1206862
:1032900081070DD5A168D9F8002002F00F029142F4
:1032A00006D2D9F8002022F00F021143C9F800100D
:1032B000D8F8001001F00F01A9420DD9D8F800107C
:1032C00021F00F012943C8F80010D8F8001001F0D0
:1032D0000F01A94240F0948041070DD5E168D9F86B
:1032E000002002F07002914206D2D9F8002022F0AC
:1032F00070021143C9F8001001070FD52169D9F8F0
:103300000020702303EA1212914207D2D9F800205C
:1033100022F4E06242EA0111C9F80010C0060DD59E
:103320006069D9F8041001F07001884206D2D9F81A
:10333000041021F070010843C9F8040000F05AF9A4
:10334000D9F8001047F2720201F00F01C0F6000236
:10335000525C40F20401C2F20001096840F2080325
:1033600020FA02F2C2F2000308461A6001B0BDE87A
:10337000F04FFDF7A3BC00BF606840F61C47C4F2E5
:10338000026768B3022831D0032835D1D9F8740018
:1033900010F0040A0BD1D9F8740040F00400C9F809
:1033A0007400D9F8740000F0040000900098FDF754
:1033B00045FC4FF6F03BCFF6FF7B57F80B10490367
:1033C00022D4BAF1000F05D1D9F8740020F004001E
:1033D000C9F8740057F81C0C800111D5606822E010
:1033E00057F81C0C40070BD500201CE057F81C0CAC
:1033F000800317D4012042E057F81C1C490512D461
:10340000012001B0BDE8F08F064600BF57F80B0061
:103410004004D6D4FDF712FC801B02284FF00300B5
:10342000F4D92CE00220396821F003010843386008
:10343000FDF704FC61680646032941F2883A28D06A
:10344000022934D071B900BF386810F00C0F3FF476
:103450001EAFFDF7F3FB801B50454FF00300F3D97F
:103460000DE000BF386800F00C0004283FF40FAFF7
:10347000FDF7E4FB801B50454FF00300F2D901B08B
:10348000BDE8F08FFDF7DAFB801B50454FF00300DD
:10349000F5D8386800F00C000C28F3D1F7E600BF2F
:1034A000FDF7CCFB801B50454FF00300E7D8386890
:1034B00000F00C000828F3D1E9E600001F220260AA
:1034C00040F62042C4F2026252F8043C03F00303C7
:1034D0004360136803F00F038360136803F0700305
:1034E000C360D2F800C0702303EA1C130361526862
:1034F00002F07002426142F20000C4F20200006871
:1035000000F00F000860704780B500F073F840F6D7
:103510002041C4F20261096847F2720201F00F0112
:10352000C0F60002515CC84040F20801C2F200013E
:10353000086080BD80B500F05DF840F62041C4F21F
:1035400002610A6847F2720302F00F02C0F600033C
:103550009A5CD04040F20802C2F200021060096892
:1035600047F28202C1F30211C0F60002515CC8406A
:1035700080BD000080B500F03DF840F62041C4F267
:1035800002610A6847F2720302F00F02C0F60003FC
:103590009A5CD04040F20802C2F200021060096852
:1035A00047F28202C1F30221C0F60002515CC8401A
:1035B00080BD000080B500F01DF840F62041C4F247
:1035C00002610A6847F2720302F00F02C0F60003BC
:1035D0009A5CD04040F20802C2F2000210604968D2
:1035E00047F28202C1F30211C0F60002515CC840EA
:1035F00080BD000040F62841C4F2026151F80C0C75
:1036000010F00C02086815D00C2A04BF00F003006B
:1036100001280FD051F80C0C9FED350A00F00C007A
:10362000042842F20040C0F2F4001DD0082A18BF5E
:10363000002019E051F8200C000205D4D1F8CC008C
:10364000C0F3033003E000BF51F8200C000F47F235
:103650000C13C0F6000353F82000002A00EE100AF5
:1036600018BF0020B8EE400A0C2A18BF7047D1F8E6
:1036700000C00A680B68C2F3032208690132C0085F
:10368000DB069FED1C1A00EAE3705FEA8C7358BFFB
:10369000B0EE401A00EE102A6FF35F30B8EE400A29
:1036A0009FED153A81EE000A01EE100AC868B8EEE7
:1036B000411A6FF35F2002EE100A21EE031AB8EEF2
:1036C000422AC86831EE021AB7EE002AC0F306603B
:1036D00031EE021A013020EE010A01EE100AB8EEB6
:1036E000411A80EE010ABCEEC00A10EE100A7047C3
:1036F000000000000024744B000000392DE9F04761
:1037000082B0002800F0B98540F6944A0446C4F21D
:10371000026A5AF8780C5AF86C1C227800F00C07F0
:10372000D00601F0030823D42078C0077CD0082FEE
:1037300076D00C2F08BFB8F1030F71D0606840F647
:103740000046B0F5803FC4F2026600F0D582B0F5C5
:10375000A81F00F0C982B0F5A02F40F0E1823068C8
:1037600040F480203060306820F48010C3E200BF55
:1037700017B30C2F08BFB8F1010F1DD040F600465B
:10378000C4F20266E1693068002900F0C18140F0AE
:1037900001003060FDF752FA054600BF306840076F
:1037A00000F1C881FDF74AFA401B02284FF00300E0
:1037B000F4D902B0BDE8F087E069002800F05D852B
:1037C00040F60049C4F20269656AD9F808000002AF
:1037D0005ABFDAF860000004D9F8080000F0704021
:1037E000854240F26381002F40F0E584DAF8000062
:1037F000400700F10F83DAF8000040F00400CAF837
:103800000000DAF8000000F0040001900198FEF7D3
:10381000F7F9DAF8001021F00401CAF80010FBE211
:103820006068002800F02985207880072FD5042FB4
:1038300020D00C2F08BFB8F1020F1BD040F6004675
:10384000C4F20266E1683068002900F0298240F481
:1038500080703060FDF7F2F9054600BF3068400522
:103860000CD4FDF7EBF9401B02284FF00300F5D90B
:103870009FE700BFE068002800F0FF845AF8840C3E
:10388000216920F4F81040EA01404AF8840C2078BD
:1038900040F600470007C4F202675DD42078400775
:1038A00000F1B2802078800600F11A8120780006AD
:1038B00000F154812078400600F19E81A56B002D17
:1038C00045D05AF8780C00F00C000C2840F05882D3
:1038D0005AF86C1C5AF8600C012D00F0CE84E26B93
:1038E00001F00303934240F0C884226CC1F3032328
:1038F000013A934240F0C184626C01F470419142FC
:1039000040F0BB84A26C01466FF35F21013A914203
:1039100040F0B384E16CC0F3462201398A4240F0A2
:10392000AC84216DC0F3064201398A4240F0A5847F
:10393000616DC0F306600139884240F09E845AF8F8
:103940005C0CE16DC0F3CC00884240F09B84002009
:1039500002B0BDE8F08700BFDAF8000010F00408FC
:103960000BD1DAF8000040F00400CAF80000DAF8E1
:10397000000000F00400019001984FF62846CFF6B1
:10398000FF76B859C00713D1B85940F00100B851BB
:10399000FDF754F9054600BFB859C00708D1FDF737
:1039A0004DF9401B0228F7D9032002B0BDE8F0878B
:1039B0006069DAF85C10002800F0E880A06901F086
:1039C0008052904200F0D48201F04062B2F1006F68
:1039D00000F05384490140F1C482DAF85C0020F021
:1039E000A050CAF85C00FDF729F90546DAF85C003A
:1039F000000140F1B582FDF721F9401B05284FF089
:103A00000300F3D9D5E600BFDAF8000010F004088F
:103A10000BD1DAF8000040F00400CAF80000DAF830
:103A2000000000F00400019001984FF62846CFF600
:103A3000FF76B859C00713D1B85940F00100B8510A
:103A4000FDF7FCF8054600BFB859C00708D1FDF7DF
:103A5000F5F8401B02284FF00300F5D9A9E600BF96
:103A6000A068C10740F0A880DAF85C10002821F0B7
:103A70000101CAF85C10DAF85C1021F00401CAF800
:103A80005C1040F0A780FDF7D9F8054641F2883672
:103A9000DAF85C00800740F13782FDF7CFF8401B71
:103AA000B0424FF00300F3D983E600BFD9F8080015
:103AB000B5F1404F40F40000C9F80800D9F80800FB
:103AC00020F0704040EA0500C9F80800C0F0AE8060
:103AD000D9F80C00216A20F01F000843CEE100BF96
:103AE000E16A3868002900F0ED8040F480503860C9
:103AF000FDF7A4F8054600BF386880043FF5D6AE50
:103B0000FDF79CF8401B02284FF00300F4D950E663
:103B100020F001003060FDF791F80546306840075D
:103B20007FF502AEFDF78AF8401B02284FF0030034
:103B3000F4D93EE6B06840F40000B060B168606A55
:103B400021F070410143B0F1404FB160C0F0988066
:103B5000F068216A20F01F000843D1E1216B38682A
:103B6000002900F0FB8040F480403860FDF766F8E3
:103B7000054600BF386800043FF59CAEFDF75EF8CF
:103B8000401B02284FF00300F4D912E621F0A050A8
:103B9000CAF85C00FDF752F8054600BFDAF85C0091
:103BA000000140F1FD81FDF749F8401B05284FF069
:103BB0000300F3D9FDE500BFDAF85C10400705D536
:103BC00041F00400CAF85C00DAF85C1041F0010032
:103BD000CAF85C00FDF732F8054641F2883600BFAE
:103BE000DAF85C00800731D4FDF728F8401BB042BA
:103BF0004FF00300F4D9DCE5606B002800F0F6809C
:103C0000B86840F40000B860B86820F07061D4E98A
:103C10000902B0F1404F41EA0201B960C0F01A81D7
:103C2000F868216A20F01F0008438BE2B5F1FF3FDE
:103C300040F3FE80D9F80C10206AB5F1804FC0F037
:103C4000198121F4F84141EA802017E1A168DAF8EE
:103C50005C00090600F1B68020F0800041F2883651
:103C6000CAF85C00DAF85C00000540F15281FCF70C
:103C7000E5FF401BB0424FF00300F3D999E500BFC8
:103C8000B0F1FF3F40F33081F268216AB0F1804F1C
:103C9000C0F0328122F4F84040EA812030E100BFD8
:103CA00020F480703060FCF7C9FF0546306840059D
:103CB0007FF5EDADFCF7C2FF401B02284FF003007B
:103CC000F4D976E520F480503860FCF7B7FF05465C
:103CD000386880047FF5EAADFCF7B0FF401B02288E
:103CE0004FF00300F4D964E5306840F48020306080
:103CF000306840F480103060306840F480303060CC
:103D0000FCF79CFF054600BF306880033FF58CAD93
:103D1000FCF794FF401B64284FF00300F4D948E5FA
:103D20003168002821F480313160316821F480212C
:103D30003160316821F480113160E1D1FCF77EFF00
:103D40000546306880037FF56FADFCF777FF401BB9
:103D500064284FF00300F4D92BE500BF20F4804025
:103D60003860FCF76BFF0546386800047FF5A2ADAC
:103D7000FCF764FF401B02284FF00300F4D918E55C
:103D8000386820F080703860FCF758FF022D054637
:103D90000CD13868800140F10F81FCF74FFF401BC8
:103DA00002284FF00300F4D903E500BF3868800112
:103DB00040F19881FCF742FF401B02284FF00300BE
:103DC000F4D9F6E440F0800041F28836CAF85C008D
:103DD000DAF85C00000500F19C80FCF72FFF401B27
:103DE000B0424FF00300F3D9E3E400BF386820F09D
:103DF00010003860FCF722FF0546386880067FF522
:103E00005DADFCF71BFF401B02284FF00300F4D907
:103E1000CFE400BFFDF7F4FE20F48031B1F5003FA0
:103E20000ED10021B5F1805F38BF0121B5E100BF9F
:103E3000D9F80C00216A20F4787040EA41101DE0A6
:103E40000021B1EB157F6FD1B0F5803F40F01582B6
:103E50000321A2E1B0F1FF3F40F35281FA68216AE9
:103E6000B0F1804FC0F06A8122F4F84040EA81202E
:103E700068E100BF21F4782141EAC030002FC9F881
:103E80000C0040F0CD81DAF80000400714D4DAF8D5
:103E9000000040F00400CAF80000DAF8000000F06A
:103EA000040001900198FDF7ABFEDAF8001021F054
:103EB0000401CAF8001001E0FDF7A2FE20F48031F1
:103EC000B1F5003F06D10021B5F1805F38BF012177
:103ED000C5E100BF0021B1EB157F33D1B0F5803FC4
:103EE00040F0CB810321BAE1F068216A20F47870B8
:103EF00040EA411004E000BF22F4782040EAC130DB
:103F0000F060FFF711BC00BFDAF85C00000600F1BA
:103F1000FF80B8F1000F7FF4C5ACDAF8000020F0A4
:103F20000400CAF80000BDE4B5F1005F40F2208152
:103F300000284FF0000140F03081B5F1405F98BF9C
:103F400001212AE1B5F1005F40F21C8100284FF009
:103F5000000140F08481B5F1405F98BF01217EE10E
:103F6000A069DAF85C1021F080510843CAF85C00BF
:103F7000DAF85C0040F08060CAF85C00FCF75EFE96
:103F8000054600BFDAF85C00000109D4FCF756FED4
:103F9000401B05284FF00300F4D9FFF70ABC00BF0F
:103FA000B8F1000F7FF47AACDAF8000020F00400DA
:103FB000CAF8000072E400BFDAF8000010F0040C48
:103FC0000BD1DAF8001041F00401CAF80010DAF859
:103FD000001001F00401019101994FF60C48CFF651
:103FE000FF7857F808E057F808304FF6037623F4C7
:103FF000802347F808305AF86C3CD4E91102B343E7
:10400000D4E90F656FF0FF013343184301EB05213D
:104010004FF47E4308434AF86C0C5AF8600C0021B8
:10402000C8F280010840511EE26C4FF4FE0503EB1C
:104030004222236D6FF35F2105EB0343656D92B25E
:104040004FF0FE4606EB0565084403F4FE031044FA
:1040500005F0FE45184428444AF8600C5AF86C0CE8
:1040600020F010004AF86C0CE06DC0004AF85C0CBF
:104070005AF86C0C40F010004AF86C0C5AF86C0CB2
:10408000A16D20F00C0008435FEA4E314AF86C0C39
:1040900005D557F8080040F4802047F80800BCF127
:1040A000000F05D1DAF8000020F00400CAF8000083
:1040B0005AF86C0C40F480204AF86C0C386840F0D8
:1040C00080703860FCF7BAFD0446386880013FF51F
:1040D0003EACFCF7B3FD001B02284FF00300F4D9FF
:1040E000FFF767BB5AF86C0C4FF6FC71CFF6F8710E
:1040F00008404AF86C0C002002B0BDE8F08700BF11
:10410000F868216A20F4787040EA41101AE000BF94
:10411000DAF85C0041F2883620F08000CAF85C00D2
:10412000DAF85C0000057FF5F4AEFCF787FD401B74
:10413000B0424FF00300F3D9FFF73BBB22F47820E5
:1041400040EAC130F860386840F010003860FCF791
:1041500075FD0546386880063FF5B0ABFCF76EFD8F
:10416000401B02284FF00300F4D9FFF722BB00BF29
:10417000B5F1805F10D10221B0F5803F08BF012169
:104180000BE000BFB5F1805F68D10221B0F5803F40
:1041900008BF012163E000BF012142F20000C4F228
:1041A0000200026822F00F020A440260006800F078
:1041B0000F00884261D1D9F8080040F40000C9F826
:1041C0000800D9F80810606A21F070410143B0F18D
:1041D000404FC9F8081007D3D9F80C00216A20F025
:1041E0001F0008431AE000BFB0F1FF3F0ADDD9F815
:1041F0000C20216AB0F1804F0CD322F4F84040EA41
:1042000081200BE0D9F80C00216A20F4787040EA94
:10421000411003E022F4782040EAC130C9F80C00D4
:10422000FFF7E8F95AF8741C47F2720201F00F0127
:10423000C0F60002515C40F2080220FA01F140F29F
:104240000400C2F200000068C2F200021160FCF734
:1042500035FD00287FF4ADAAFFF766BA012142F2CE
:104260000000C4F20200026822F00F020A44026059
:10427000006800F00F008842D2D0012002B0BDE8F3
:10428000F08700BF5AF86C0C20F010004AF86C0C54
:10429000FCF7D4FC0546FCF7D1FCA842FBD0E06D4E
:1042A000C0004AF85C0C5AF86C0C40F010004AF858
:1042B0006C0C002002B0BDE8F087000070470000E1
:1042C0007047000070470000704700007047000012
:1042D0007047000070470000002804BF01207047AD
:1042E00010B5044690F83D0028B9002084F83C0041
:1042F000204600F023F8022084F83D002068211DAC
:1043000000F03CFD012084F8480084F83E0084F869
:104310003F0084F8400084F8410084F8420084F8AB
:10432000430084F8440084F8450084F8460084F88B
:10433000470084F83D00002010BD000070470000D9
:1043400090F83D1001291CBF01207047022180F820
:104350003D100168C868B1F1A04F40F00100C8608D
:1043600016DA40F6FF30C4F20000814226DD43F247
:10437000FF30C4F2010081423CDC40F60040C4F250
:10438000000081424ED042F60040C4F2010047E0F6
:1043900040F6FF30C5F2000081421DDD43F2FF30E0
:1043A000C5F20100814231DC40F60040C5F2000058
:1043B000814237D042F6004030E000BFB1F1804F7B
:1043C00030D040F20040C4F2000081422AD040F6D2
:1043D0000000C4F2000023E0B1F1A04F22D040F26F
:1043E0000040C5F2000081421CD040F60000C5F23A
:1043F000000015E043F20040C4F20100814211D0F8
:1044000044F20000C4F201000AE000BF44F20000E0
:10441000C5F20100814205D043F20040C5F201001F
:1044200081420DD188680722C0F201020240062AAB
:104430004FF0000018BFB2F5803F01D1704700BFB8
:10444000086840F0010008600020704770470000D5
:1044500010B5016804460869800744BFC8685FEA70
:10446000807061D40869400744BFC8685FEA407043
:1044700066D40869000744BFC8685FEA00706DD45D
:104480000869C00644BFC8685FEAC06072D40869A2
:10449000C0071CBFC8685FEAC07079D10869000610
:1044A00044BFC8685FEA00607AD40869C00544BFA9
:1044B000C8685FEA006000F17B800869400644BF7D
:1044C000C8685FEA406000F17B800869800644BFED
:1044D000C8685FEA806000F17B800869C00244BF61
:1044E000C8685FEAC02000F17B800869800244BF91
:1044F000C8685FEA802000F17B800869400244BF01
:10450000C8685FEA402000F17B800869000246BF6E
:10451000C8685FEA002010BD6FF4000220460A61FF
:10452000BDE81040FFF7D6BE6FF002000861012021
:104530002077886980076BD02046FFF787FF6DE002
:104540006FF00400086102202077886910F4407F32
:1045500068D02046FFF77AFF6AE000BF6FF00800DE
:10456000086104202077C869800765D02046FFF7DE
:104570006DFF67E06FF01000086108202077C869C0
:1045800010F4407F62D02046FFF760FF64E000BF78
:104590006FF001000861204600F066F821687DE7B1
:1045A0006FF0800008612046FFF78AFE21687CE7F3
:1045B0006FF4807008612046FFF780FE21687CE779
:1045C0006FF040000861204600F058F821687CE751
:1045D0006FF0200008612046FFF774FE21687CE739
:1045E0006FF4801008612046FFF770FE21687CE7B9
:1045F0006FF4001008612046FFF766FE21687CE733
:104600006FF4800008612046FFF762FE21687CE7B6
:10461000204600F025F8204600F024F8216800200C
:1046200020771FE7204600F01BF8204600F01AF81C
:104630002168002020771CE7204600F011F8204672
:1046400000F010F821680020207719E7204600F0DC
:1046500007F8204600F006F821680020207716E7CA
:104660007047000070470000006841F20001C4F28A
:104670000001884218BF7047FCF7E6BA7047000097
:1046800090F88410012904BF022070472421C0F84B
:10469000881002681168136823F00103136021F089
:1046A00000530021416613602022C0F8882080F862
:1046B0008410084670470000B0B590F88420012AA5
:1046C00004BF0220B0BD2422C0F888200268D0F8C0
:1046D00064E0D2F800C01368BEF1000F23F00103BC
:1046E0001360936823F0606341EA0301916019D07D
:1046F0009368916847F2641E490FC0F6000E47F2B6
:104700006C151EF80140C0F60005C3F34263695CF6
:10471000E400B4FBF1F11EF80340EB5CE500B5FBEF
:10472000F3F301E001210123A0F86A102021A0F891
:104730006830C2F800C0C0F88810002180F88410EA
:104740000846B0BDB0B590F88420012A04BF02200D
:10475000B0BD2422C0F888200268D0F864E0D2F806
:1047600000C01368BEF1000F23F0010313609368CB
:1047700023F0604341EA0301916019D09368916886
:1047800047F2641E490FC0F6000E47F26C151EF882
:104790000140C0F60005C3F34263695CE400B4FB6A
:1047A000F1F11EF80340EB5CE500B5FBF3F301E02B
:1047B00001210123A0F86A102021A0F86830C2F876
:1047C00000C0C0F88810002180F884100846B0BDF1
:1047D00010B5B0B10446D0F8880028B9002084F89C
:1047E0008400204600F028F82420C4F888002068BF
:1047F000016821F001010160204600F029FD012837
:1048000002D1012010BD00BFA06A00281CBF2046B5
:1048100000F0F2FB2168486820F490404860886806
:1048200020F02A008860086840F0010220460A60F3
:10483000BDE8104000F054BC10B5B8B0044668465E
:104840000830C021FBF70CFE206843F60001C4F2DB
:104850000101884202D038B010BD00BF0020019095
:10486000012000906846FEF77DF9002818BFFBF78D
:104870005FFE40F68C40C4F20260816941F48041E1
:104880008161816901F4804133913399016841F07C
:1048900001010160006833A900F0010033903398F2
:1048A0004FF4C06033900220CDE9340003203690ED
:1048B000072037900020C4F20220FCF78FF838B0B0
:1048C00010BD0000FEE700002DE9F04F0C6894FADF
:1048D000A4F2B2FA82F234FA02F365D04FF0010882
:1048E0004FF0030C0CE000BFD1E90043076807EA72
:1048F0000907AB403B430360013234FA02F353D063
:1049000008FA02F314EA0306F6D0D1F804B0ABF1CA
:104910000103022B1CD296FAA6F3B3FA83F3D0F864
:1049200008A05D000CFA05F76FEA07092AEA070AF2
:10493000D1E9027EAF4047EA0A078760D0F804A0B9
:104940000EFB04F72AEA04042743476009E000BF8E
:1049500096FAA6F3B3FA83F35D000CFA05F46FEA56
:1049600004090F69C468AF4004EA09042743BBF196
:10497000020FC760B8D1F7B2360AD1F814E096FA40
:10498000A6F6002F08BFB6FA86F34FF0200708BF3F
:104990002427C6599B000F249C4026EA04040EFAE3
:1049A00003F32343C3519FE70020BDE8F08F0000CD
:1049B000FEE70000FEE7000040F2B410C2F2000083
:1049C000FCF74CBA000000000000000000000000EE
:1049D000EFF309801EF0100F08BF20ED108AEFF3EF
:1049E0000B82734620E9FC0F114A116808604FF0F2
:1049F000500080F31188BFF34F8FBFF36F8F02F029
:104A00005BF84FF0000080F31188094A11680868CC
:104A1000B0E8FC0F13F0100F08BFB0EC108A82F35F
:104A20000B8880F30988184700BF00BF00BF00BF94
:104A3000A007002070B540F62C46C4F2026656F876
:104A40002C1C044621F0806046F82C0CFCF7F6F88C
:104A5000054600BF56F82C0C000107D5FCF7EEF810
:104A6000401B022884BF032070BDF3E7306840F686
:104A70000371884394E80E106FF0FF0505EB0222E6
:104A800008431043306030690021C8F2800100EA19
:104A9000010E591E4FF47E42236902EB4C224FF463
:104AA000FE0505EB034365696FF35F2192B24FF09A
:104AB000FE4000EB0560714403F4FE03114400F076
:104AC000FE401944084430613068A16920F00C00B0
:104AD00008433060206A31680843306030684FF620
:104AE000F87120F0100030607069E269884340EA94
:104AF000C2007061306840F01000306056F82C0C35
:104B000040F0806046F82C0CFCF798F8044600BF93
:104B100056F82C0C000144BF002070BDFCF78EF845
:104B2000001B032824BF032070BDF1E770B540F6D9
:104B30003046C4F2026656F8301C044621F080501C
:104B400046F8300CFCF77AF8054600BF56F8300CF2
:104B5000800007D5FCF772F8401B022884BF0320B1
:104B600070BDF3E7306840F60371884394E80E1097
:104B70006FF0FF0505EB02220843104330607069B7
:104B80000021C8F2800100EA010E591E4FF47E4256
:104B9000236902EB4C224FF4FE0505EB03436569E4
:104BA0006FF35F2192B24FF0FE4000EB056071445D
:104BB00003F4FE03114400F0FE4019440844706100
:104BC0003068A16920F00C0008433060206A316829
:104BD0000843306030684FF6F87120F01000306004
:104BE000B069E269884340EAC200B061306840F0D1
:104BF0001000306056F8300C40F0805046F8300C11
:104C0000FCF71CF8044600BF56F8300C800044BF87
:104C1000002070BDFCF712F8001B032824BF0320FE
:104C200070BDF1E70000000000000000000000007F
:104C30001EF0040F0CBFEFF30880EFF30980044966
:104C4000084700BF00BF00BF00BF00BF00BF00BFDC
:104C50005D69000810B501F0C3FD044602F0B0F82C
:104C600030B14EF60450CEF200004FF0805101609A
:104C70002046BDE8104001F0D1BD000010B59EB047
:104C800006A804303421FBF7EBFB00244FF440303E
:104C9000CDE90444CDE90244CDE90044FCF71EFF10
:104CA00020B1EFF3108072B6FEE700BF322006900D
:104CB0004FF4807009904FF4805011901020012122
:104CC0000A90CDE90D104FF080400F900220CDE901
:104CD0001401CDE916145021CDE91810CDE91A00C0
:104CE00006A8CDE91C44FEF709FD28B1EFF31080BA
:104CF00072B600BFFEE700BF1F20009003200190A6
:104D00000020CDE90200CDE9040068460421FEF749
:104D100055FA002804BF1EB010BDEFF3108072B624
:104D2000FEE700004EF6885CCEF2000CDCF80010C6
:104D3000012241F47001CCF8001040F60041C4F2A9
:104D400002610A600022CA610A624A620B684FF679
:104D5000FF70CEF6F620184008608A62086820F4DA
:104D6000802008604FF000600A654CF8800C7047A6
:104D700040F2C060C2F20000FFF76ABB10B50268E3
:104D8000B0F1A04F16DA40F6FF33C4F200039842A8
:104D900026DCB0F1804F49D040F20043C4F200035A
:104DA000984243D040F60003C4F2000398423DD03D
:104DB00040E000BF40F6FF33C5F20003984223DC19
:104DC000B0F1A04F32D040F20043C5F20003984248
:104DD0002CD040F60003C5F20003984226D029E00B
:104DE00040F60043C4F2000398421FD042F600434D
:104DF000C4F20103984219D043F20043C4F2010304
:104E0000984213D016E000BF40F60043C5F20003FD
:104E100098420BD043F20043C5F20103984205D0FB
:104E200042F60043C5F20103984203D14B6822F0D9
:104E300070021A4342F6FF3CB0F1A04FC5F2010CDC
:104E40001CDA42F6FF33C4F2010398422EDD43F62A
:104E5000FF73C4F20103984242DD44F20003C4F23E
:104E6000010398426CD044F20043C4F2010398421B
:104E700066D044F60003C4F201035FE0604523DD21
:104E800043F6FF73C5F20103984235DD44F2000397
:104E9000C5F20103984253D044F60003C5F2010362
:104EA00098424DD044F200432EE000BF40F2FF7321
:104EB000C4F2000398422BDCB0F1804F40D040F2A6
:104EC0000043C4F2000339E040F2FF73C5F200036F
:104ED000984229DCB0F1A04F32D040F200432BE0E1
:104EE00042F60043C4F20103984229D043F2004342
:104EF000C4F2010322E000BF42F60043C5F2010301
:104F000098421DD043F20043C5F2010316E000BFF2
:104F100040F60003C4F20003984211D040F600436B
:104F2000C4F200030AE000BF40F60003C5F200032C
:104F3000984205D040F60043C5F20003984203D1E1
:104F4000CB6822F440721A434B6922F08002D1F8F8
:104F500000E08C681A4360450260C462C0F828E033
:104F600016DC43F6FF72C4F20102904226DD44F2E1
:104F70000002C4F20102904238D044F20042C4F26E
:104F80000102904232D044F60002C4F201022BE04A
:104F900043F6FF72C5F2010290421BDD44F20002AB
:104FA000C5F20102904221D044F60002C5F201028E
:104FB00090421BD044F2004214E000BF42F600428F
:104FC000C4F20102904211D043F20042C4F2010245
:104FD0000AE000BF42F60042C5F20102904205D04D
:104FE00043F20042C5F20102904201D10969016316
:104FF0000121416110BD000080B5816ACA070DD151
:105000008A0716D44A071FD40A0728D4CA0631D4FF
:105010008A063AD44A0658D542E000BF0268D0F862
:105020002CC0536823F4003343EA0C0353608A070F
:10503000E8D50268D0F830C0536823F4803343EADF
:105040000C0353604A07DFD50268D0F834C05368B8
:1050500023F4802343EA0C0353600A07D6D5026881
:10506000D0F838C0536823F4004343EA0C0353607C
:10507000CA06CDD50268D0F83CC0936823F48053AB
:1050800043EA0C0393608A06C4D50268D0F840C096
:10509000936823F4005343EA0C0393604A0614D543
:1050A0000268D0F844C05368BCF5801F23F4801315
:1050B00043EA0C03536008D1D2F804C0D0F848E0AA
:1050C0002CF4C00343EA0E035360090658BF80BDA9
:1050D0000168C06C4A6822F400221043486080BD19
:1050E000B0B582B004460020C4F89000FBF7A6FDDE
:1050F000216805460A68120737D56FF07E4C2046B6
:105100004FF4001100222B46CDF800C000F0A6F9A4
:1051100050B300BF206850E8000F216820F08000E5
:1051200041E80002DAB1206850E8000F216820F061
:10513000800041E8000292B1206850E8000F216829
:1051400020F0800041E800024AB1206850E8000FDA
:10515000216820F0800041E80002002ADAD12020F6
:10516000C4F8880060E000BF21680868400761D586
:105170006FF07E4C20464FF4800100222B46CDF884
:1051800000C000F06BF9002854D000BF206850E840
:10519000000F216820F4907041E80002E2B120681D
:1051A00050E8000F216820F4907041E800029AB1A5
:1051B000206850E8000F216820F4907041E8000258
:1051C00052B1206850E8000F216820F4907041E847
:1051D0000002002ADAD100BF206850E8020F2168DF
:1051E00020F0010041E80202DAB1206850E8020F25
:1051F000216820F0010041E8020292B1206850E8E5
:10520000020F216820F0010041E802024AB1206843
:1052100050E8020F216820F0010041E80202002A54
:10522000DAD12020C4F88C000320002184F88410F7
:1052300002B0B0BD2020C4F88800C4F88C00002063
:10524000E0662067002184F8841002B0B0BD000041
:1052500070B504462269D4E90213006811436269FB
:10526000E6690568114346F6F312CCF6FF722A4050
:1052700011433143016041684FF2FF4521F4405131
:105280001943416042F20041A26940F08053C5F2E7
:1052900000618B421CBF236A1A438368C1F2FF1569
:1052A0002B401A438260C26A636A22F00F021A43DB
:1052B00044F6FF73C4F200039842C2621ADD42F260
:1052C000FF32C4F2006290422EDC45F20001C4F2CB
:1052D0000001884232D043F60001C4F20101884245
:1052E00040F0888001200021FCF7F6FEB6F5004F63
:1052F0003BD186E044F20041C4F20001884225D04F
:1053000044F60001C4F20001884227D044F600416F
:10531000C4F2000188426DD108200021FCF7DCFEB8
:10532000B6F5004F21D16CE042F20042C4F20062B7
:10533000904233D088425DD1002030E0102000211F
:10534000FCF7CAFEB6F5004F0FD15AE0022000214B
:10535000FCF7C2FEB6F5004F07D152E00420002151
:10536000FCF7BAFEB6F5004F4BD0A8B1616A47F220
:105370004C12C0F6000232F811106268B0FBF1F076
:1053800000EB5200B0FBF2F04FF6EF72A0F110010B
:10539000914252D9012558E0002556E020200021F5
:1053A0000025FCF799FE00284FD0616A47F24C12A5
:1053B000C0F6000232F811106268B0FBF1F002EBA7
:1053C00042010125884240D3110388423DD8010E95
:1053D000000210EB520041F100010023FAF79EFF9A
:1053E0004FF60052A0F54071C0F20F02914224D353
:1053F00001252AE000200021FCF76EFEB6F5004FE3
:10540000B3D1F8B1616A47F24C12C0F6000232F82B
:1054100011106268B0FBF1F0510801EB4000B0FBE5
:10542000F2F04FF6EF72A0F1100191420CD84FF656
:10543000F071C0F342020840104421680025C860A2
:1054400003E000BF002500E001254FF00110A06639
:10545000002128466167A16770BD00002DE9F04179
:10546000044600681546C2690E461140891BB1FA10
:1054700081F14909A94240F0D980DDF81880B8F1DE
:10548000000F2BD018F101012ED100BFC1693140AE
:10549000891BB1FA81F14909A94240F0C780C1696D
:1054A0003140891BB1FA81F14909A94240F0BE801F
:1054B000C1693140891BB1FA81F14909A94240F023
:1054C000B580C1693140891BB1FA81F14909A9420E
:1054D0001CBF0020BDE8F081D8E700BFFBF7AEFBA2
:1054E0000320BDE8F08100BF1F4608E0C0693040DE
:1054F000801BB0FA80F04009A84240F09780FBF78B
:105500009DFBC01B404584BF0320BDE8F08120689F
:1055100001684907EAD5C169090700F18B80C169B3
:105520000905E3D54FF40061016200BF206850E82F
:10553000000F216820F4907041E80002DAB1206881
:1055400050E8000F216820F4907041E8000292B109
:10555000206850E8000F216820F4907041E80002B4
:105560004AB1206850E8000F216820F4907041E8AB
:105570000002002ADAD14FF6FE70CEF6FF7000BFAF
:10558000216851E8021F2268014042E80213C3B1BA
:10559000216851E8021F2268014042E8021383B1EA
:1055A000216851E8021F2268014042E8021343B11A
:1055B000216851E8021F2268014042E80213002BD3
:1055C000DED1E06E012824D1206850E8000F216868
:1055D00020F0100041E80002DAB1206850E8000F26
:1055E000216820F0100041E8000292B1206850E8E4
:1055F000000F216820F0100041E800024AB1206845
:1056000050E8000F216820F0100041E80002002A55
:10561000DAD120200021C4F88C00E1666167C4F86B
:105620009000032084F88410BDE8F0810020BDE8DC
:10563000F08100BF08210162206850E8000F216856
:1056400020F4907041E80002DAB1206850E8000FC1
:10565000216820F4907041E8000292B1206850E87F
:10566000000F216820F4907041E800024AB12068E0
:1056700050E8000F216820F4907041E80002002AF1
:10568000DAD14FF6FE70CEF6FF7000BF216851E808
:10569000021F2268014042E80213C3B1216851E8A9
:1056A000021F2268014042E8021383B1216851E8D9
:1056B000021F2268014042E8021343B1216851E809
:1056C000021F2268014042E80213002BDED1E06E87
:1056D000012824D1206850E8000F216820F0100034
:1056E00041E80002DAB1206850E8000F216820F09C
:1056F000100041E8000292B1206850E8000F2168D4
:1057000020F0100041E800024AB1206850E8000F84
:10571000216820F0100041E80002002ADAD12020A0
:10572000C4F88C0000200821E0666067C4F890107F
:1057300084F884000120BDE8F08100000146D0F823
:10574000000940F2FF729043C1F80009D1F8040843
:1057500040F480720020C1F80428704781B00146EF
:10576000C068079A40F04000C86040F640500023EF
:10577000C0F203000093009B01330093009B83421F
:105780004AD80B69002B1BD4009B01330093009B6C
:10579000834243D80B69002B12D4009B0133009342
:1057A000009B83423CD80B69002B09D4009B01333A
:1057B0000093009B834235D80B69B3F1FF3FDADCDD
:1057C000002300930B6943F001030B61009B01333D
:1057D0000093009B834227D80B69DB0726D0009BF0
:1057E00001330093009B834222D80B69DB0721D051
:1057F000009B01330093009B83421DD80B69DB079C
:105800001CD0009B01330093009B834218D80B6986
:10581000DB07DBD1002014E0032012E0032010E0BE
:1058200003200EE003200CE003200AE0002008E043
:10583000032006E0002004E0032002E0002000E056
:1058400003208B6B002A23F4803308BF03F58033D9
:105850008B6301B0704700000146D0F8000E20F0C5
:105860000300C1F8000ED1F8040840F00202002045
:10587000C1F80428704700002DE9F04F84B0DDF82E
:1058800050E00022BEF1000FC0F80421C0F808214A
:10589000C0F80C21C0F81021C0F81421C0F818215C
:1058A000C0F81C21C0F82021C0F82421C0F828210C
:1058B000C0F82C21C0F83021C0F83421C0F83821BC
:1058C000C0F83C2106D0826B00F5006A42F4001259
:1058D000826313E0D0F8042800F5006A42F0020267
:1058E000C0F80428826B22F400128263026842F03E
:1058F00040020260026842F0800202600022C0F8AA
:10590000002ED0F80078DDF8408040F6405547F092
:105910000307C0F20305C0F800780292029A013230
:105920000292029AAA424BD80269002A1BD4029A18
:1059300001320292029AAA4242D80269002A12D483
:10594000029A01320292029AAA4239D80269002AC6
:1059500009D4029A01320292029AAA4230D802690C
:10596000B2F1FF3FDADC002202924FF4846202615E
:10597000029A01320292029AAA4221D80269920640
:105980001AD5029A01320292029AAA4218D80269E2
:10599000920611D5029A01320292029AAA420FD8B7
:1059A0000269920608D5029A01320292029AAA422C
:1059B00006D802699206DBD44FF0000B02E000BF6C
:1059C0004FF0010B00220392039A01320392039AD3
:1059D000AA4247D80269002A1BD4039A01320392D3
:1059E000039AAA423ED80269002A12D4039A0132CD
:1059F0000392039AAA4235D80269002A09D4039A6D
:105A000001320392039AAA422CD80269B2F1FF3FF5
:105A1000DADC0022039210220261039A013203921F
:105A2000039AAA421ED80269D2061DD5039A0132F2
:105A30000392039AAA4215D80269D20614D5039A92
:105A400001320392039AAA420CD80269D2060BD5FE
:105A5000039A01320392039AAA4203D80269D2063A
:105A6000DBD401E04FF0010B4FF000090029CAF828
:105A70001090CAF81490CAF81C9000F00881D0F871
:105A800000294FF0006505EA12124FF67F374E1ECF
:105A9000C0F80029C0F81099C0F808797CD08A1E97
:105AA0001C46CDF804B0032A06F0030B04D22027CD
:105AB000BBF1000F42D166E026F0030200274FF051
:105AC000904E4FF67F3C4FF00008009400EB080327
:105AD000D3F82059043A0EEAE57508F18008C3F8B6
